{
  "_format": "hh-sol-artifact-1",
  "contractName": "Dao",
  "sourceName": "contracts/Dao.sol",
  "abi": [
    {
      "inputs": [],
      "stateMutability": "nonpayable",
      "type": "constructor"
    },
    {
      "anonymous": false,
      "inputs": [
        {
          "indexed": true,
          "internalType": "address",
          "name": "_author",
          "type": "address"
        },
        {
          "indexed": false,
          "internalType": "string",
          "name": "author",
          "type": "string"
        },
        {
          "indexed": true,
          "internalType": "string",
          "name": "_proposal",
          "type": "string"
        },
        {
          "indexed": false,
          "internalType": "string",
          "name": "proposal",
          "type": "string"
        },
        {
          "indexed": false,
          "internalType": "string[]",
          "name": "options",
          "type": "string[]"
        }
      ],
      "name": "ProposalCreated",
      "type": "event"
    },
    {
      "anonymous": false,
      "inputs": [
        {
          "indexed": false,
          "internalType": "uint256",
          "name": "lastVoteCount",
          "type": "uint256"
        },
        {
          "indexed": false,
          "internalType": "uint256",
          "name": "newVoteCount",
          "type": "uint256"
        },
        {
          "indexed": false,
          "internalType": "address",
          "name": "sender",
          "type": "address"
        },
        {
          "indexed": true,
          "internalType": "string",
          "name": "voteOption",
          "type": "string"
        },
        {
          "indexed": true,
          "internalType": "string",
          "name": "proposal",
          "type": "string"
        }
      ],
      "name": "castVote",
      "type": "event"
    },
    {
      "inputs": [
        {
          "internalType": "string",
          "name": "_proposal",
          "type": "string"
        },
        {
          "internalType": "string",
          "name": "option",
          "type": "string"
        }
      ],
      "name": "addProposalVoteOption",
      "outputs": [],
      "stateMutability": "nonpayable",
      "type": "function"
    },
    {
      "inputs": [
        {
          "internalType": "address",
          "name": "_address",
          "type": "address"
        }
      ],
      "name": "checkRegistered",
      "outputs": [
        {
          "internalType": "bool",
          "name": "",
          "type": "bool"
        }
      ],
      "stateMutability": "view",
      "type": "function"
    },
    {
      "inputs": [
        {
          "internalType": "string",
          "name": "_title",
          "type": "string"
        },
        {
          "internalType": "bool",
          "name": "_isActive",
          "type": "bool"
        },
        {
          "internalType": "string[]",
          "name": "voteOptions",
          "type": "string[]"
        }
      ],
      "name": "createProposal",
      "outputs": [],
      "stateMutability": "nonpayable",
      "type": "function"
    },
    {
      "inputs": [],
      "name": "getBalance",
      "outputs": [
        {
          "internalType": "uint256",
          "name": "",
          "type": "uint256"
        }
      ],
      "stateMutability": "view",
      "type": "function"
    },
    {
      "inputs": [
        {
          "internalType": "string",
          "name": "_proposal",
          "type": "string"
        }
      ],
      "name": "getTotalVotes",
      "outputs": [
        {
          "internalType": "uint256",
          "name": "",
          "type": "uint256"
        }
      ],
      "stateMutability": "view",
      "type": "function"
    },
    {
      "inputs": [
        {
          "internalType": "string",
          "name": "_title",
          "type": "string"
        }
      ],
      "name": "markProposalActive",
      "outputs": [],
      "stateMutability": "nonpayable",
      "type": "function"
    },
    {
      "inputs": [
        {
          "internalType": "string",
          "name": "_title",
          "type": "string"
        }
      ],
      "name": "markProposalInActive",
      "outputs": [],
      "stateMutability": "nonpayable",
      "type": "function"
    },
    {
      "inputs": [
        {
          "internalType": "address",
          "name": "",
          "type": "address"
        }
      ],
      "name": "members",
      "outputs": [
        {
          "internalType": "uint256",
          "name": "balance",
          "type": "uint256"
        },
        {
          "internalType": "string",
          "name": "username",
          "type": "string"
        },
        {
          "internalType": "string",
          "name": "imageurl",
          "type": "string"
        }
      ],
      "stateMutability": "view",
      "type": "function"
    },
    {
      "inputs": [
        {
          "internalType": "string",
          "name": "",
          "type": "string"
        }
      ],
      "name": "proposals",
      "outputs": [
        {
          "internalType": "address",
          "name": "author",
          "type": "address"
        },
        {
          "internalType": "bool",
          "name": "isActive",
          "type": "bool"
        },
        {
          "internalType": "uint256",
          "name": "totalVotes",
          "type": "uint256"
        }
      ],
      "stateMutability": "view",
      "type": "function"
    },
    {
      "inputs": [
        {
          "internalType": "string",
          "name": "username",
          "type": "string"
        },
        {
          "internalType": "string",
          "name": "imageurl",
          "type": "string"
        }
      ],
      "name": "registerMember",
      "outputs": [],
      "stateMutability": "payable",
      "type": "function"
    },
    {
      "inputs": [
        {
          "internalType": "string",
          "name": "_proposal",
          "type": "string"
        },
        {
          "internalType": "string",
          "name": "_voteOption",
          "type": "string"
        }
      ],
      "name": "vote",
      "outputs": [],
      "stateMutability": "nonpayable",
      "type": "function"
    }
  ],
  "bytecode": "0x6080604052655af3107a400060015534801561001a57600080fd5b50336000806101000a81548173ffffffffffffffffffffffffffffffffffffffff021916908373ffffffffffffffffffffffffffffffffffffffff160217905550611c718061006a6000396000f3fe60806040526004361061009c5760003560e01c806398d16f751161006457806398d16f75146101795780639ebcac3d146101b6578063a0bcc5d8146101df578063e8d5940d14610208578063ee2574af14610231578063ffa0d2a41461026e5761009c565b806308ae4b0c146100a157806312065fe0146100e057806361fbc15c1461010b57806390fef8ca146101345780639591822314610150575b600080fd5b3480156100ad57600080fd5b506100c860048036038101906100c391906111fb565b6102ad565b6040516100d793929190611885565b60405180910390f35b3480156100ec57600080fd5b506100f56103e7565b604051610102919061186a565b60405180910390f35b34801561011757600080fd5b50610132600480360381019061012d9190611224565b6103ef565b005b61014e600480360381019061014991906112e4565b610561565b005b34801561015c57600080fd5b5061017760048036038101906101729190611265565b610628565b005b34801561018557600080fd5b506101a0600480360381019061019b9190611224565b610877565b6040516101ad919061186a565b60405180910390f35b3480156101c257600080fd5b506101dd60048036038101906101d891906112e4565b610910565b005b3480156101eb57600080fd5b5061020660048036038101906102019190611224565b610a9f565b005b34801561021457600080fd5b5061022f600480360381019061022a91906112e4565b610c11565b005b34801561023d57600080fd5b50610258600480360381019061025391906111fb565b610f82565b6040516102659190611743565b60405180910390f35b34801561027a57600080fd5b5061029560048036038101906102909190611224565b610fd2565b6040516102a49392919061170c565b60405180910390f35b60026020528060005260406000206000915090508060000154908060010180546102d690611af4565b80601f016020809104026020016040519081016040528092919081815260200182805461030290611af4565b801561034f5780601f106103245761010080835404028352916020019161034f565b820191906000526020600020905b81548152906001019060200180831161033257829003601f168201915b50505050509080600201805461036490611af4565b80601f016020809104026020016040519081016040528092919081815260200182805461039090611af4565b80156103dd5780601f106103b2576101008083540402835291602001916103dd565b820191906000526020600020905b8154815290600101906020018083116103c057829003601f168201915b5050505050905083565b600047905090565b600154600260003373ffffffffffffffffffffffffffffffffffffffff1673ffffffffffffffffffffffffffffffffffffffff1681526020019081526020016000206000015414610475576040517f08c379a000000000000000000000000000000000000000000000000000000000815260040161046c906117ea565b60405180910390fd5b3373ffffffffffffffffffffffffffffffffffffffff1660038260405161049c91906116f5565b908152602001604051809103902060000160009054906101000a900473ffffffffffffffffffffffffffffffffffffffff1673ffffffffffffffffffffffffffffffffffffffff1614610524576040517f08c379a000000000000000000000000000000000000000000000000000000000815260040161051b906117ea565b60405180910390fd5b600060038260405161053691906116f5565b908152602001604051809103902060000160146101000a81548160ff02191690831515021790555050565b60015434146105a5576040517f08c379a000000000000000000000000000000000000000000000000000000000815260040161059c906117ca565b60405180910390fd5b6000600260003373ffffffffffffffffffffffffffffffffffffffff1673ffffffffffffffffffffffffffffffffffffffff16815260200190815260200160002090503481600001819055508281600101908051906020019061060992919061103f565b508181600201908051906020019061062292919061103f565b50505050565b600154600260003373ffffffffffffffffffffffffffffffffffffffff1673ffffffffffffffffffffffffffffffffffffffff16815260200190815260200160002060000154146106ae576040517f08c379a00000000000000000000000000000000000000000000000000000000081526004016106a5906117ea565b60405180910390fd5b60006003846040516106c091906116f5565b90815260200160405180910390209050338160000160006101000a81548173ffffffffffffffffffffffffffffffffffffffff021916908373ffffffffffffffffffffffffffffffffffffffff160217905550828160000160146101000a81548160ff02191690831515021790555060005b82518110156107c75760018260020184838151811061077a577f4e487b7100000000000000000000000000000000000000000000000000000000600052603260045260246000fd5b602002602001015160405161078f91906116f5565b908152602001604051809103902060006101000a81548160ff02191690831515021790555080806107bf90611b26565b915050610732565b50836040516107d691906116f5565b60405180910390203373ffffffffffffffffffffffffffffffffffffffff167fd496eed19434a987baab3fd0d1dbfafd6ed458ed69f88b3ac88e5af3578b7b64600260003373ffffffffffffffffffffffffffffffffffffffff1673ffffffffffffffffffffffffffffffffffffffff16815260200190815260200160002060010187866040516108699392919061175e565b60405180910390a350505050565b600060038260405161088991906116f5565b908152602001604051809103902060000160149054906101000a900460ff166108e7576040517f08c379a00000000000000000000000000000000000000000000000000000000081526004016108de9061184a565b60405180910390fd5b6003826040516108f791906116f5565b9081526020016040518091039020600101549050919050565b600154600260003373ffffffffffffffffffffffffffffffffffffffff1673ffffffffffffffffffffffffffffffffffffffff1681526020019081526020016000206000015414610996576040517f08c379a000000000000000000000000000000000000000000000000000000000815260040161098d906117ea565b60405180910390fd5b3373ffffffffffffffffffffffffffffffffffffffff166003836040516109bd91906116f5565b908152602001604051809103902060000160009054906101000a900473ffffffffffffffffffffffffffffffffffffffff1673ffffffffffffffffffffffffffffffffffffffff1614610a45576040517f08c379a0000000000000000000000000000000000000000000000000000000008152600401610a3c906117ea565b60405180910390fd5b6001600383604051610a5791906116f5565b908152602001604051809103902060020182604051610a7691906116f5565b908152602001604051809103902060006101000a81548160ff0219169083151502179055505050565b600154600260003373ffffffffffffffffffffffffffffffffffffffff1673ffffffffffffffffffffffffffffffffffffffff1681526020019081526020016000206000015414610b25576040517f08c379a0000000000000000000000000000000000000000000000000000000008152600401610b1c906117ea565b60405180910390fd5b3373ffffffffffffffffffffffffffffffffffffffff16600382604051610b4c91906116f5565b908152602001604051809103902060000160009054906101000a900473ffffffffffffffffffffffffffffffffffffffff1673ffffffffffffffffffffffffffffffffffffffff1614610bd4576040517f08c379a0000000000000000000000000000000000000000000000000000000008152600401610bcb906117ea565b60405180910390fd5b6001600382604051610be691906116f5565b908152602001604051809103902060000160146101000a81548160ff02191690831515021790555050565b600154600260003373ffffffffffffffffffffffffffffffffffffffff1673ffffffffffffffffffffffffffffffffffffffff1681526020019081526020016000206000015414610c97576040517f08c379a0000000000000000000000000000000000000000000000000000000008152600401610c8e906117ea565b60405180910390fd5b600382604051610ca791906116f5565b908152602001604051809103902060000160149054906101000a900460ff16610d05576040517f08c379a0000000000000000000000000000000000000000000000000000000008152600401610cfc9061182a565b60405180910390fd5b600382604051610d1591906116f5565b908152602001604051809103902060020181604051610d3491906116f5565b908152602001604051809103902060009054906101000a900460ff16610d8f576040517f08c379a0000000000000000000000000000000000000000000000000000000008152600401610d86906117aa565b60405180910390fd5b600260003373ffffffffffffffffffffffffffffffffffffffff1673ffffffffffffffffffffffffffffffffffffffff16815260200190815260200160002060030182604051610ddf91906116f5565b908152602001604051809103902060009054906101000a900460ff1615610e3b576040517f08c379a0000000000000000000000000000000000000000000000000000000008152600401610e329061180a565b60405180910390fd5b6000600383604051610e4d91906116f5565b90815260200160405180910390206001015490506001600260003373ffffffffffffffffffffffffffffffffffffffff1673ffffffffffffffffffffffffffffffffffffffff16815260200190815260200160002060030184604051610eb391906116f5565b908152602001604051809103902060006101000a81548160ff021916908315150217905550600181610ee59190611a14565b600384604051610ef591906116f5565b90815260200160405180910390206001018190555082604051610f1891906116f5565b604051809103902082604051610f2e91906116f5565b60405180910390207f5a6fb668a71ba0d82d2d4a61af19953b9cdb30867a63abe4fc9745a115a88cff83600185610f659190611a14565b33604051610f75939291906118ca565b60405180910390a3505050565b6000600154600260008473ffffffffffffffffffffffffffffffffffffffff1673ffffffffffffffffffffffffffffffffffffffff16815260200190815260200160002060000154149050919050565b6003818051602081018201805184825260208301602085012081835280955050505050506000915090508060000160009054906101000a900473ffffffffffffffffffffffffffffffffffffffff16908060000160149054906101000a900460ff16908060010154905083565b82805461104b90611af4565b90600052602060002090601f01602090048101928261106d57600085556110b4565b82601f1061108657805160ff19168380011785556110b4565b828001600101855582156110b4579182015b828111156110b3578251825591602001919060010190611098565b5b5090506110c191906110c5565b5090565b5b808211156110de5760008160009055506001016110c6565b5090565b60006110f56110f084611932565b611901565b9050808382526020820190508260005b85811015611135578135850161111b88826111d1565b845260208401935060208301925050600181019050611105565b5050509392505050565b600061115261114d8461195e565b611901565b90508281526020810184848401111561116a57600080fd5b611175848285611ab2565b509392505050565b60008135905061118c81611c0d565b92915050565b600082601f8301126111a357600080fd5b81356111b38482602086016110e2565b91505092915050565b6000813590506111cb81611c24565b92915050565b600082601f8301126111e257600080fd5b81356111f284826020860161113f565b91505092915050565b60006020828403121561120d57600080fd5b600061121b8482850161117d565b91505092915050565b60006020828403121561123657600080fd5b600082013567ffffffffffffffff81111561125057600080fd5b61125c848285016111d1565b91505092915050565b60008060006060848603121561127a57600080fd5b600084013567ffffffffffffffff81111561129457600080fd5b6112a0868287016111d1565b93505060206112b1868287016111bc565b925050604084013567ffffffffffffffff8111156112ce57600080fd5b6112da86828701611192565b9150509250925092565b600080604083850312156112f757600080fd5b600083013567ffffffffffffffff81111561131157600080fd5b61131d858286016111d1565b925050602083013567ffffffffffffffff81111561133a57600080fd5b611346858286016111d1565b9150509250929050565b600061135c83836113f7565b905092915050565b61136d81611a6a565b82525050565b600061137e826119b3565b61138881856119d6565b93508360208202850161139a8561198e565b8060005b858110156113d657848403895281516113b78582611350565b94506113c2836119c9565b925060208a0199505060018101905061139e565b50829750879550505050505092915050565b6113f181611a7c565b82525050565b6000611402826119be565b61140c81856119e7565b935061141c818560208601611ac1565b61142581611bfc565b840191505092915050565b600061143b826119be565b61144581856119f8565b9350611455818560208601611ac1565b61145e81611bfc565b840191505092915050565b6000611474826119be565b61147e8185611a09565b935061148e818560208601611ac1565b80840191505092915050565b600081546114a781611af4565b6114b181866119f8565b945060018216600081146114cc57600181146114de57611511565b60ff1983168652602086019350611511565b6114e78561199e565b60005b83811015611509578154818901526001820191506020810190506114ea565b808801955050505b50505092915050565b6000611527601c836119f8565b91507f566f7465206f7074696f6e206973206e6f7420617661696c61626c65000000006000830152602082019050919050565b60006115676020836119f8565b91507f526567697374726174696f6e2066656520697320302e303030312065746865726000830152602082019050919050565b60006115a7602a836119f8565b91507f596f7520617265206e6f7420617574686f72697a656420746f2074616b65207460008301527f68697320616374696f6e000000000000000000000000000000000000000000006020830152604082019050919050565b600061160d6020836119f8565b91507f596f7520766f7465732068617665206265656e206361737420616c72656164796000830152602082019050919050565b600061164d6021836119f8565b91507f50726f706f73616c206e6f7420617661696c61626c6520666f7220766f74696e60008301527f67000000000000000000000000000000000000000000000000000000000000006020830152604082019050919050565b60006116b36012836119f8565b91507f50726f706f73616c206e6f7420666f756e6400000000000000000000000000006000830152602082019050919050565b6116ef81611aa8565b82525050565b60006117018284611469565b915081905092915050565b60006060820190506117216000830186611364565b61172e60208301856113e8565b61173b60408301846116e6565b949350505050565b600060208201905061175860008301846113e8565b92915050565b60006060820190508181036000830152611778818661149a565b9050818103602083015261178c8185611430565b905081810360408301526117a08184611373565b9050949350505050565b600060208201905081810360008301526117c38161151a565b9050919050565b600060208201905081810360008301526117e38161155a565b9050919050565b600060208201905081810360008301526118038161159a565b9050919050565b6000602082019050818103600083015261182381611600565b9050919050565b6000602082019050818103600083015261184381611640565b9050919050565b60006020820190508181036000830152611863816116a6565b9050919050565b600060208201905061187f60008301846116e6565b92915050565b600060608201905061189a60008301866116e6565b81810360208301526118ac8185611430565b905081810360408301526118c08184611430565b9050949350505050565b60006060820190506118df60008301866116e6565b6118ec60208301856116e6565b6118f96040830184611364565b949350505050565b6000604051905081810181811067ffffffffffffffff8211171561192857611927611bcd565b5b8060405250919050565b600067ffffffffffffffff82111561194d5761194c611bcd565b5b602082029050602081019050919050565b600067ffffffffffffffff82111561197957611978611bcd565b5b601f19601f8301169050602081019050919050565b6000819050602082019050919050565b60008190508160005260206000209050919050565b600081519050919050565b600081519050919050565b6000602082019050919050565b600082825260208201905092915050565b600082825260208201905092915050565b600082825260208201905092915050565b600081905092915050565b6000611a1f82611aa8565b9150611a2a83611aa8565b9250827fffffffffffffffffffffffffffffffffffffffffffffffffffffffffffffffff03821115611a5f57611a5e611b6f565b5b828201905092915050565b6000611a7582611a88565b9050919050565b60008115159050919050565b600073ffffffffffffffffffffffffffffffffffffffff82169050919050565b6000819050919050565b82818337600083830152505050565b60005b83811015611adf578082015181840152602081019050611ac4565b83811115611aee576000848401525b50505050565b60006002820490506001821680611b0c57607f821691505b60208210811415611b2057611b1f611b9e565b5b50919050565b6000611b3182611aa8565b91507fffffffffffffffffffffffffffffffffffffffffffffffffffffffffffffffff821415611b6457611b63611b6f565b5b600182019050919050565b7f4e487b7100000000000000000000000000000000000000000000000000000000600052601160045260246000fd5b7f4e487b7100000000000000000000000000000000000000000000000000000000600052602260045260246000fd5b7f4e487b7100000000000000000000000000000000000000000000000000000000600052604160045260246000fd5b6000601f19601f8301169050919050565b611c1681611a6a565b8114611c2157600080fd5b50565b611c2d81611a7c565b8114611c3857600080fd5b5056fea2646970667358221220a1e0cb9177020743a06a95ebb527b5343cb98e7a8cf2bef23889e8bbfad46dfc64736f6c63430008000033",
  "linkReferences": {},
  "deployedLinkReferences": {}
}