{
    "_format": "hh-sol-artifact-1",
    "contractName": "Dao",
    "sourceName": "contracts/Dao.sol",
    "abi": [
        {
            "inputs": [],
            "stateMutability": "nonpayable",
            "type": "constructor"
        },
        {
            "anonymous": false,
            "inputs": [
                {
                    "indexed": false,
                    "internalType": "uint256",
                    "name": "lastVoteCount",
                    "type": "uint256"
                },
                {
                    "indexed": false,
                    "internalType": "uint256",
                    "name": "newVoteCount",
                    "type": "uint256"
                },
                {
                    "indexed": false,
                    "internalType": "address",
                    "name": "sender",
                    "type": "address"
                },
                {
                    "indexed": true,
                    "internalType": "string",
                    "name": "voteOption",
                    "type": "string"
                },
                {
                    "indexed": true,
                    "internalType": "string",
                    "name": "proposal",
                    "type": "string"
                }
            ],
            "name": "castVote",
            "type": "event"
        },
        {
            "anonymous": false,
            "inputs": [
                {
                    "indexed": true,
                    "internalType": "address",
                    "name": "sender",
                    "type": "address"
                },
                {
                    "indexed": true,
                    "internalType": "string",
                    "name": "proposal",
                    "type": "string"
                }
            ],
            "name": "proposalCreated",
            "type": "event"
        },
        {
            "inputs": [
                {
                    "internalType": "string",
                    "name": "_proposal",
                    "type": "string"
                },
                {
                    "internalType": "string",
                    "name": "option",
                    "type": "string"
                }
            ],
            "name": "addProposalVoteOption",
            "outputs": [],
            "stateMutability": "nonpayable",
            "type": "function"
        },
        {
            "inputs": [
                {
                    "internalType": "string",
                    "name": "_title",
                    "type": "string"
                },
                {
                    "internalType": "bool",
                    "name": "_isActive",
                    "type": "bool"
                }
            ],
            "name": "createProposal",
            "outputs": [],
            "stateMutability": "nonpayable",
            "type": "function"
        },
        {
            "inputs": [],
            "name": "getBalance",
            "outputs": [
                {
                    "internalType": "uint256",
                    "name": "",
                    "type": "uint256"
                }
            ],
            "stateMutability": "view",
            "type": "function"
        },
        {
            "inputs": [
                {
                    "internalType": "string",
                    "name": "_proposal",
                    "type": "string"
                }
            ],
            "name": "getTotalVotes",
            "outputs": [
                {
                    "internalType": "uint256",
                    "name": "",
                    "type": "uint256"
                }
            ],
            "stateMutability": "view",
            "type": "function"
        },
        {
            "inputs": [
                {
                    "internalType": "string",
                    "name": "_title",
                    "type": "string"
                }
            ],
            "name": "markProposalActive",
            "outputs": [],
            "stateMutability": "nonpayable",
            "type": "function"
        },
        {
            "inputs": [
                {
                    "internalType": "string",
                    "name": "_title",
                    "type": "string"
                }
            ],
            "name": "markProposalInActive",
            "outputs": [],
            "stateMutability": "nonpayable",
            "type": "function"
        },
        {
            "inputs": [
                {
                    "internalType": "address",
                    "name": "",
                    "type": "address"
                }
            ],
            "name": "members",
            "outputs": [
                {
                    "internalType": "uint256",
                    "name": "balance",
                    "type": "uint256"
                }
            ],
            "stateMutability": "view",
            "type": "function"
        },
        {
            "inputs": [
                {
                    "internalType": "string",
                    "name": "",
                    "type": "string"
                }
            ],
            "name": "proposals",
            "outputs": [
                {
                    "internalType": "address",
                    "name": "author",
                    "type": "address"
                },
                {
                    "internalType": "bool",
                    "name": "isActive",
                    "type": "bool"
                },
                {
                    "internalType": "uint256",
                    "name": "totalVotes",
                    "type": "uint256"
                }
            ],
            "stateMutability": "view",
            "type": "function"
        },
        {
            "inputs": [],
            "name": "registerMember",
            "outputs": [],
            "stateMutability": "payable",
            "type": "function"
        },
        {
            "inputs": [
                {
                    "internalType": "string",
                    "name": "_proposal",
                    "type": "string"
                },
                {
                    "internalType": "string",
                    "name": "_voteOption",
                    "type": "string"
                }
            ],
            "name": "vote",
            "outputs": [],
            "stateMutability": "nonpayable",
            "type": "function"
        }
    ],
    "bytecode": "0x60806040526001805534801561001457600080fd5b50336000806101000a81548173ffffffffffffffffffffffffffffffffffffffff021916908373ffffffffffffffffffffffffffffffffffffffff1602179055506114c9806100646000396000f3fe6080604052600436106100915760003560e01c80639ebcac3d116100595780639ebcac3d1461016e578063a0bcc5d814610197578063e8d5940d146101c0578063ee593070146101e9578063ffa0d2a41461021257610091565b806308ae4b0c1461009657806312065fe0146100d357806360f8dd7e146100fe57806361fbc15c1461010857806398d16f7514610131575b600080fd5b3480156100a257600080fd5b506100bd60048036038101906100b89190610deb565b610251565b6040516100ca919061124d565b60405180910390f35b3480156100df57600080fd5b506100e861026f565b6040516100f5919061124d565b60405180910390f35b610106610277565b005b34801561011457600080fd5b5061012f600480360381019061012a9190610e14565b61030a565b005b34801561013d57600080fd5b5061015860048036038101906101539190610e14565b61047c565b604051610165919061124d565b60405180910390f35b34801561017a57600080fd5b5061019560048036038101906101909190610ea9565b610515565b005b3480156101a357600080fd5b506101be60048036038101906101b99190610e14565b6106a4565b005b3480156101cc57600080fd5b506101e760048036038101906101e29190610ea9565b610816565b005b3480156101f557600080fd5b50610210600480360381019061020b9190610e55565b610b87565b005b34801561021e57600080fd5b5061023960048036038101906102349190610e14565b610cec565b60405161024893929190611156565b60405180910390f35b60026020528060005260406000206000915090508060000154905081565b600047905090565b60015434146102bb576040517f08c379a00000000000000000000000000000000000000000000000000000000081526004016102b2906111ad565b60405180910390fd5b6000600260003373ffffffffffffffffffffffffffffffffffffffff1673ffffffffffffffffffffffffffffffffffffffff168152602001908152602001600020905034816000018190555050565b600154600260003373ffffffffffffffffffffffffffffffffffffffff1673ffffffffffffffffffffffffffffffffffffffff1681526020019081526020016000206000015414610390576040517f08c379a0000000000000000000000000000000000000000000000000000000008152600401610387906111cd565b60405180910390fd5b3373ffffffffffffffffffffffffffffffffffffffff166003826040516103b7919061113f565b908152602001604051809103902060000160009054906101000a900473ffffffffffffffffffffffffffffffffffffffff1673ffffffffffffffffffffffffffffffffffffffff161461043f576040517f08c379a0000000000000000000000000000000000000000000000000000000008152600401610436906111cd565b60405180910390fd5b6000600382604051610451919061113f565b908152602001604051809103902060000160146101000a81548160ff02191690831515021790555050565b600060038260405161048e919061113f565b908152602001604051809103902060000160149054906101000a900460ff166104ec576040517f08c379a00000000000000000000000000000000000000000000000000000000081526004016104e39061122d565b60405180910390fd5b6003826040516104fc919061113f565b9081526020016040518091039020600101549050919050565b600154600260003373ffffffffffffffffffffffffffffffffffffffff1673ffffffffffffffffffffffffffffffffffffffff168152602001908152602001600020600001541461059b576040517f08c379a0000000000000000000000000000000000000000000000000000000008152600401610592906111cd565b60405180910390fd5b3373ffffffffffffffffffffffffffffffffffffffff166003836040516105c2919061113f565b908152602001604051809103902060000160009054906101000a900473ffffffffffffffffffffffffffffffffffffffff1673ffffffffffffffffffffffffffffffffffffffff161461064a576040517f08c379a0000000000000000000000000000000000000000000000000000000008152600401610641906111cd565b60405180910390fd5b600160038360405161065c919061113f565b90815260200160405180910390206002018260405161067b919061113f565b908152602001604051809103902060006101000a81548160ff0219169083151502179055505050565b600154600260003373ffffffffffffffffffffffffffffffffffffffff1673ffffffffffffffffffffffffffffffffffffffff168152602001908152602001600020600001541461072a576040517f08c379a0000000000000000000000000000000000000000000000000000000008152600401610721906111cd565b60405180910390fd5b3373ffffffffffffffffffffffffffffffffffffffff16600382604051610751919061113f565b908152602001604051809103902060000160009054906101000a900473ffffffffffffffffffffffffffffffffffffffff1673ffffffffffffffffffffffffffffffffffffffff16146107d9576040517f08c379a00000000000000000000000000000000000000000000000000000000081526004016107d0906111cd565b60405180910390fd5b60016003826040516107eb919061113f565b908152602001604051809103902060000160146101000a81548160ff02191690831515021790555050565b600154600260003373ffffffffffffffffffffffffffffffffffffffff1673ffffffffffffffffffffffffffffffffffffffff168152602001908152602001600020600001541461089c576040517f08c379a0000000000000000000000000000000000000000000000000000000008152600401610893906111cd565b60405180910390fd5b6003826040516108ac919061113f565b908152602001604051809103902060000160149054906101000a900460ff1661090a576040517f08c379a00000000000000000000000000000000000000000000000000000000081526004016109019061120d565b60405180910390fd5b60038260405161091a919061113f565b908152602001604051809103902060020181604051610939919061113f565b908152602001604051809103902060009054906101000a900460ff16610994576040517f08c379a000000000000000000000000000000000000000000000000000000000815260040161098b9061118d565b60405180910390fd5b600260003373ffffffffffffffffffffffffffffffffffffffff1673ffffffffffffffffffffffffffffffffffffffff168152602001908152602001600020600101826040516109e4919061113f565b908152602001604051809103902060009054906101000a900460ff1615610a40576040517f08c379a0000000000000000000000000000000000000000000000000000000008152600401610a37906111ed565b60405180910390fd5b6000600383604051610a52919061113f565b90815260200160405180910390206001015490506001600260003373ffffffffffffffffffffffffffffffffffffffff1673ffffffffffffffffffffffffffffffffffffffff16815260200190815260200160002060010184604051610ab8919061113f565b908152602001604051809103902060006101000a81548160ff021916908315150217905550600181610aea9190611327565b600384604051610afa919061113f565b90815260200160405180910390206001018190555082604051610b1d919061113f565b604051809103902082604051610b33919061113f565b60405180910390207f5a6fb668a71ba0d82d2d4a61af19953b9cdb30867a63abe4fc9745a115a88cff83600185610b6a9190611327565b33604051610b7a93929190611268565b60405180910390a3505050565b600154600260003373ffffffffffffffffffffffffffffffffffffffff1673ffffffffffffffffffffffffffffffffffffffff1681526020019081526020016000206000015414610c0d576040517f08c379a0000000000000000000000000000000000000000000000000000000008152600401610c04906111cd565b60405180910390fd5b6000600383604051610c1f919061113f565b90815260200160405180910390209050338160000160006101000a81548173ffffffffffffffffffffffffffffffffffffffff021916908373ffffffffffffffffffffffffffffffffffffffff160217905550818160000160146101000a81548160ff02191690831515021790555082604051610c9c919061113f565b60405180910390203373ffffffffffffffffffffffffffffffffffffffff167ff6683c1ffe46b98aee13437382371394d1eeaa0fe5fb4c32fe4b199c02b48f8a60405160405180910390a3505050565b6003818051602081018201805184825260208301602085012081835280955050505050506000915090508060000160009054906101000a900473ffffffffffffffffffffffffffffffffffffffff16908060000160149054906101000a900460ff16908060010154905083565b6000610d6c610d67846112d0565b61129f565b905082815260208101848484011115610d8457600080fd5b610d8f8482856113c5565b509392505050565b600081359050610da681611465565b92915050565b600081359050610dbb8161147c565b92915050565b600082601f830112610dd257600080fd5b8135610de2848260208601610d59565b91505092915050565b600060208284031215610dfd57600080fd5b6000610e0b84828501610d97565b91505092915050565b600060208284031215610e2657600080fd5b600082013567ffffffffffffffff811115610e4057600080fd5b610e4c84828501610dc1565b91505092915050565b60008060408385031215610e6857600080fd5b600083013567ffffffffffffffff811115610e8257600080fd5b610e8e85828601610dc1565b9250506020610e9f85828601610dac565b9150509250929050565b60008060408385031215610ebc57600080fd5b600083013567ffffffffffffffff811115610ed657600080fd5b610ee285828601610dc1565b925050602083013567ffffffffffffffff811115610eff57600080fd5b610f0b85828601610dc1565b9150509250929050565b610f1e8161137d565b82525050565b610f2d8161138f565b82525050565b6000610f3e82611300565b610f48818561131c565b9350610f588185602086016113d4565b80840191505092915050565b6000610f71601c8361130b565b91507f566f7465206f7074696f6e206973206e6f7420617661696c61626c65000000006000830152602082019050919050565b6000610fb160198361130b565b91507f526567697374726174696f6e20666565206973203120776569000000000000006000830152602082019050919050565b6000610ff1602a8361130b565b91507f596f7520617265206e6f7420617574686f72697a656420746f2074616b65207460008301527f68697320616374696f6e000000000000000000000000000000000000000000006020830152604082019050919050565b600061105760208361130b565b91507f596f7520766f7465732068617665206265656e206361737420616c72656164796000830152602082019050919050565b600061109760218361130b565b91507f50726f706f73616c206e6f7420617661696c61626c6520666f7220766f74696e60008301527f67000000000000000000000000000000000000000000000000000000000000006020830152604082019050919050565b60006110fd60128361130b565b91507f50726f706f73616c206e6f7420666f756e6400000000000000000000000000006000830152602082019050919050565b611139816113bb565b82525050565b600061114b8284610f33565b915081905092915050565b600060608201905061116b6000830186610f15565b6111786020830185610f24565b6111856040830184611130565b949350505050565b600060208201905081810360008301526111a681610f64565b9050919050565b600060208201905081810360008301526111c681610fa4565b9050919050565b600060208201905081810360008301526111e681610fe4565b9050919050565b600060208201905081810360008301526112068161104a565b9050919050565b600060208201905081810360008301526112268161108a565b9050919050565b60006020820190508181036000830152611246816110f0565b9050919050565b60006020820190506112626000830184611130565b92915050565b600060608201905061127d6000830186611130565b61128a6020830185611130565b6112976040830184610f15565b949350505050565b6000604051905081810181811067ffffffffffffffff821117156112c6576112c5611436565b5b8060405250919050565b600067ffffffffffffffff8211156112eb576112ea611436565b5b601f19601f8301169050602081019050919050565b600081519050919050565b600082825260208201905092915050565b600081905092915050565b6000611332826113bb565b915061133d836113bb565b9250827fffffffffffffffffffffffffffffffffffffffffffffffffffffffffffffffff0382111561137257611371611407565b5b828201905092915050565b60006113888261139b565b9050919050565b60008115159050919050565b600073ffffffffffffffffffffffffffffffffffffffff82169050919050565b6000819050919050565b82818337600083830152505050565b60005b838110156113f25780820151818401526020810190506113d7565b83811115611401576000848401525b50505050565b7f4e487b7100000000000000000000000000000000000000000000000000000000600052601160045260246000fd5b7f4e487b7100000000000000000000000000000000000000000000000000000000600052604160045260246000fd5b61146e8161137d565b811461147957600080fd5b50565b6114858161138f565b811461149057600080fd5b5056fea264697066735822122022e0fa41e7d88a2e10a1cd4bb52c36e2386505e9b9a9fb758644008b949fb67464736f6c63430008000033",
    "linkReferences": {},
    "deployedLinkReferences": {}
}