{
  "_format": "hh-sol-artifact-1",
  "contractName": "Dao",
  "sourceName": "contracts/Dao.sol",
  "abi": [
    {
      "inputs": [],
      "stateMutability": "nonpayable",
      "type": "constructor"
    },
    {
      "anonymous": false,
      "inputs": [
        {
          "indexed": true,
          "internalType": "address",
          "name": "_author",
          "type": "address"
        },
        {
          "indexed": true,
          "internalType": "string",
          "name": "_proposal",
          "type": "string"
        },
        {
          "indexed": false,
          "internalType": "string",
          "name": "proposal",
          "type": "string"
        },
        {
          "indexed": false,
          "internalType": "string",
          "name": "author",
          "type": "string"
        },
        {
          "indexed": false,
          "internalType": "string[]",
          "name": "options",
          "type": "string[]"
        },
        {
          "indexed": false,
          "internalType": "uint256",
          "name": "timestamp",
          "type": "uint256"
        }
      ],
      "name": "ProposalCreated",
      "type": "event"
    },
    {
      "anonymous": false,
      "inputs": [
        {
          "indexed": true,
          "internalType": "address",
          "name": "_sender",
          "type": "address"
        },
        {
          "indexed": true,
          "internalType": "string",
          "name": "_voteOption",
          "type": "string"
        },
        {
          "indexed": true,
          "internalType": "string",
          "name": "_proposal",
          "type": "string"
        },
        {
          "indexed": false,
          "internalType": "uint256",
          "name": "lastVoteCount",
          "type": "uint256"
        },
        {
          "indexed": false,
          "internalType": "uint256",
          "name": "newVoteCount",
          "type": "uint256"
        },
        {
          "indexed": false,
          "internalType": "string",
          "name": "author",
          "type": "string"
        },
        {
          "indexed": false,
          "internalType": "string",
          "name": "imageUrl",
          "type": "string"
        },
        {
          "indexed": false,
          "internalType": "string",
          "name": "voteOption",
          "type": "string"
        },
        {
          "indexed": false,
          "internalType": "uint256",
          "name": "timestamp",
          "type": "uint256"
        }
      ],
      "name": "VoteCasted",
      "type": "event"
    },
    {
      "inputs": [
        {
          "internalType": "address",
          "name": "_address",
          "type": "address"
        }
      ],
      "name": "checkRegistered",
      "outputs": [
        {
          "internalType": "bool",
          "name": "",
          "type": "bool"
        }
      ],
      "stateMutability": "view",
      "type": "function"
    },
    {
      "inputs": [
        {
          "internalType": "string",
          "name": "_title",
          "type": "string"
        },
        {
          "internalType": "string[]",
          "name": "voteOptions",
          "type": "string[]"
        },
        {
          "internalType": "uint256",
          "name": "endDate",
          "type": "uint256"
        }
      ],
      "name": "createProposal",
      "outputs": [],
      "stateMutability": "nonpayable",
      "type": "function"
    },
    {
      "inputs": [],
      "name": "getBalance",
      "outputs": [
        {
          "internalType": "uint256",
          "name": "",
          "type": "uint256"
        }
      ],
      "stateMutability": "view",
      "type": "function"
    },
    {
      "inputs": [
        {
          "internalType": "string",
          "name": "_proposal",
          "type": "string"
        }
      ],
      "name": "getProposalAttributes",
      "outputs": [
        {
          "internalType": "uint256",
          "name": "",
          "type": "uint256"
        },
        {
          "internalType": "bool",
          "name": "",
          "type": "bool"
        }
      ],
      "stateMutability": "view",
      "type": "function"
    },
    {
      "inputs": [
        {
          "internalType": "string",
          "name": "_title",
          "type": "string"
        }
      ],
      "name": "markProposalClosed",
      "outputs": [],
      "stateMutability": "nonpayable",
      "type": "function"
    },
    {
      "inputs": [
        {
          "internalType": "string",
          "name": "_title",
          "type": "string"
        }
      ],
      "name": "markProposalOpen",
      "outputs": [],
      "stateMutability": "nonpayable",
      "type": "function"
    },
    {
      "inputs": [
        {
          "internalType": "address",
          "name": "",
          "type": "address"
        }
      ],
      "name": "members",
      "outputs": [
        {
          "internalType": "uint256",
          "name": "balance",
          "type": "uint256"
        },
        {
          "internalType": "string",
          "name": "username",
          "type": "string"
        },
        {
          "internalType": "string",
          "name": "imageUrl",
          "type": "string"
        }
      ],
      "stateMutability": "view",
      "type": "function"
    },
    {
      "inputs": [
        {
          "internalType": "string",
          "name": "",
          "type": "string"
        }
      ],
      "name": "proposals",
      "outputs": [
        {
          "internalType": "address",
          "name": "author",
          "type": "address"
        },
        {
          "internalType": "bool",
          "name": "isClosed",
          "type": "bool"
        },
        {
          "internalType": "uint256",
          "name": "totalVotes",
          "type": "uint256"
        },
        {
          "internalType": "uint256",
          "name": "endDate",
          "type": "uint256"
        }
      ],
      "stateMutability": "view",
      "type": "function"
    },
    {
      "inputs": [
        {
          "internalType": "string",
          "name": "username",
          "type": "string"
        },
        {
          "internalType": "string",
          "name": "imageUrl",
          "type": "string"
        }
      ],
      "name": "registerMember",
      "outputs": [],
      "stateMutability": "payable",
      "type": "function"
    },
    {
      "inputs": [
        {
          "internalType": "string",
          "name": "_proposal",
          "type": "string"
        },
        {
          "internalType": "string",
          "name": "_voteOption",
          "type": "string"
        }
      ],
      "name": "vote",
      "outputs": [],
      "stateMutability": "nonpayable",
      "type": "function"
    }
  ],
  "bytecode": "0x6080604052655af3107a400060015534801561001a57600080fd5b50336000806101000a81548173ffffffffffffffffffffffffffffffffffffffff021916908373ffffffffffffffffffffffffffffffffffffffff160217905550611b3d8061006a6000396000f3fe6080604052600436106100915760003560e01c806390fef8ca1161005957806390fef8ca14610190578063985f993f146101ac578063e8d5940d146101d5578063ee2574af146101fe578063ffa0d2a41461023b57610091565b806308ae4b0c1461009657806312065fe0146100d55780633989ae3414610100578063749a8cc8146101295780638e649c3714610167575b600080fd5b3480156100a257600080fd5b506100bd60048036038101906100b891906110a3565b61027b565b6040516100cc93929190611712565b60405180910390f35b3480156100e157600080fd5b506100ea6103b5565b6040516100f791906116ce565b60405180910390f35b34801561010c57600080fd5b506101276004803603810190610122919061110d565b6103bd565b005b34801561013557600080fd5b50610150600480360381019061014b91906110cc565b610605565b60405161015e9291906116e9565b60405180910390f35b34801561017357600080fd5b5061018e600480360381019061018991906110cc565b610662565b005b6101aa60048036038101906101a5919061118c565b6107d4565b005b3480156101b857600080fd5b506101d360048036038101906101ce91906110cc565b61089b565b005b3480156101e157600080fd5b506101fc60048036038101906101f7919061118c565b610a0d565b005b34801561020a57600080fd5b50610225600480360381019061022091906110a3565b610e24565b60405161023291906115b9565b60405180910390f35b34801561024757600080fd5b50610262600480360381019061025d91906110cc565b610e74565b6040516102729493929190611574565b60405180910390f35b60026020528060005260406000206000915090508060000154908060010180546102a4906119c0565b80601f01602080910402602001604051908101604052809291908181526020018280546102d0906119c0565b801561031d5780601f106102f25761010080835404028352916020019161031d565b820191906000526020600020905b81548152906001019060200180831161030057829003601f168201915b505050505090806002018054610332906119c0565b80601f016020809104026020016040519081016040528092919081815260200182805461035e906119c0565b80156103ab5780601f10610380576101008083540402835291602001916103ab565b820191906000526020600020905b81548152906001019060200180831161038e57829003601f168201915b5050505050905083565b600047905090565b600154600260003373ffffffffffffffffffffffffffffffffffffffff1673ffffffffffffffffffffffffffffffffffffffff1681526020019081526020016000206000015414610443576040517f08c379a000000000000000000000000000000000000000000000000000000000815260040161043a9061166e565b60405180910390fd5b6000600384604051610455919061155d565b90815260200160405180910390209050338160000160006101000a81548173ffffffffffffffffffffffffffffffffffffffff021916908373ffffffffffffffffffffffffffffffffffffffff16021790555060008211156104bb578181600201819055505b60005b835181101561055357600182600301858381518110610506577f4e487b7100000000000000000000000000000000000000000000000000000000600052603260045260246000fd5b602002602001015160405161051b919061155d565b908152602001604051809103902060006101000a81548160ff021916908315150217905550808061054b906119f2565b9150506104be565b5083604051610562919061155d565b60405180910390203373ffffffffffffffffffffffffffffffffffffffff167f4811958153af850bf74130ac019c841312f43dbe6eaa83ba1f836abb94f90af786600260003373ffffffffffffffffffffffffffffffffffffffff1673ffffffffffffffffffffffffffffffffffffffff16815260200190815260200160002060010187426040516105f794939291906115d4565b60405180910390a350505050565b600080600383604051610618919061155d565b90815260200160405180910390206001015460038460405161063a919061155d565b908152602001604051809103902060000160149054906101000a900460ff1691509150915091565b600154600260003373ffffffffffffffffffffffffffffffffffffffff1673ffffffffffffffffffffffffffffffffffffffff16815260200190815260200160002060000154146106e8576040517f08c379a00000000000000000000000000000000000000000000000000000000081526004016106df9061166e565b60405180910390fd5b3373ffffffffffffffffffffffffffffffffffffffff1660038260405161070f919061155d565b908152602001604051809103902060000160009054906101000a900473ffffffffffffffffffffffffffffffffffffffff1673ffffffffffffffffffffffffffffffffffffffff1614610797576040517f08c379a000000000000000000000000000000000000000000000000000000000815260040161078e9061166e565b60405180910390fd5b60016003826040516107a9919061155d565b908152602001604051809103902060000160146101000a81548160ff02191690831515021790555050565b6001543414610818576040517f08c379a000000000000000000000000000000000000000000000000000000000815260040161080f9061164e565b60405180910390fd5b6000600260003373ffffffffffffffffffffffffffffffffffffffff1673ffffffffffffffffffffffffffffffffffffffff16815260200190815260200160002090503481600001819055508281600101908051906020019061087c929190610ee7565b5081816002019080519060200190610895929190610ee7565b50505050565b600154600260003373ffffffffffffffffffffffffffffffffffffffff1673ffffffffffffffffffffffffffffffffffffffff1681526020019081526020016000206000015414610921576040517f08c379a00000000000000000000000000000000000000000000000000000000081526004016109189061166e565b60405180910390fd5b3373ffffffffffffffffffffffffffffffffffffffff16600382604051610948919061155d565b908152602001604051809103902060000160009054906101000a900473ffffffffffffffffffffffffffffffffffffffff1673ffffffffffffffffffffffffffffffffffffffff16146109d0576040517f08c379a00000000000000000000000000000000000000000000000000000000081526004016109c79061166e565b60405180910390fd5b60006003826040516109e2919061155d565b908152602001604051809103902060000160146101000a81548160ff02191690831515021790555050565b600154600260003373ffffffffffffffffffffffffffffffffffffffff1673ffffffffffffffffffffffffffffffffffffffff1681526020019081526020016000206000015414610a93576040517f08c379a0000000000000000000000000000000000000000000000000000000008152600401610a8a9061166e565b60405180910390fd5b600382604051610aa3919061155d565b908152602001604051809103902060000160149054906101000a900460ff1615610b02576040517f08c379a0000000000000000000000000000000000000000000000000000000008152600401610af9906116ae565b60405180910390fd5b600382604051610b12919061155d565b908152602001604051809103902060030181604051610b31919061155d565b908152602001604051809103902060009054906101000a900460ff16610b8c576040517f08c379a0000000000000000000000000000000000000000000000000000000008152600401610b839061162e565b60405180910390fd5b60001515600260003373ffffffffffffffffffffffffffffffffffffffff1673ffffffffffffffffffffffffffffffffffffffff16815260200190815260200160002060030183604051610be0919061155d565b908152602001604051809103902060009054906101000a900460ff16151514610c3e576040517f08c379a0000000000000000000000000000000000000000000000000000000008152600401610c359061168e565b60405180910390fd5b6000600383604051610c50919061155d565b90815260200160405180910390206001015490506001600260003373ffffffffffffffffffffffffffffffffffffffff1673ffffffffffffffffffffffffffffffffffffffff16815260200190815260200160002060030184604051610cb6919061155d565b908152602001604051809103902060006101000a81548160ff021916908315150217905550600181610ce891906118e0565b600384604051610cf8919061155d565b90815260200160405180910390206001018190555082604051610d1b919061155d565b604051809103902082604051610d31919061155d565b60405180910390203373ffffffffffffffffffffffffffffffffffffffff167f8c27b8329dc238d54132c3ea3df607ebcc6de53995d27ea3cbb14d9a69697f4a84600186610d7f91906118e0565b600260003373ffffffffffffffffffffffffffffffffffffffff1673ffffffffffffffffffffffffffffffffffffffff168152602001908152602001600020600101600260003373ffffffffffffffffffffffffffffffffffffffff1673ffffffffffffffffffffffffffffffffffffffff1681526020019081526020016000206002018942604051610e1796959493929190611757565b60405180910390a4505050565b6000600154600260008473ffffffffffffffffffffffffffffffffffffffff1673ffffffffffffffffffffffffffffffffffffffff16815260200190815260200160002060000154149050919050565b6003818051602081018201805184825260208301602085012081835280955050505050506000915090508060000160009054906101000a900473ffffffffffffffffffffffffffffffffffffffff16908060000160149054906101000a900460ff16908060010154908060020154905084565b828054610ef3906119c0565b90600052602060002090601f016020900481019282610f155760008555610f5c565b82601f10610f2e57805160ff1916838001178555610f5c565b82800160010185558215610f5c579182015b82811115610f5b578251825591602001919060010190610f40565b5b509050610f699190610f6d565b5090565b5b80821115610f86576000816000905550600101610f6e565b5090565b6000610f9d610f98846117fe565b6117cd565b9050808382526020820190508260005b85811015610fdd5781358501610fc38882611064565b845260208401935060208301925050600181019050610fad565b5050509392505050565b6000610ffa610ff58461182a565b6117cd565b90508281526020810184848401111561101257600080fd5b61101d84828561197e565b509392505050565b60008135905061103481611ad9565b92915050565b600082601f83011261104b57600080fd5b813561105b848260208601610f8a565b91505092915050565b600082601f83011261107557600080fd5b8135611085848260208601610fe7565b91505092915050565b60008135905061109d81611af0565b92915050565b6000602082840312156110b557600080fd5b60006110c384828501611025565b91505092915050565b6000602082840312156110de57600080fd5b600082013567ffffffffffffffff8111156110f857600080fd5b61110484828501611064565b91505092915050565b60008060006060848603121561112257600080fd5b600084013567ffffffffffffffff81111561113c57600080fd5b61114886828701611064565b935050602084013567ffffffffffffffff81111561116557600080fd5b6111718682870161103a565b92505060406111828682870161108e565b9150509250925092565b6000806040838503121561119f57600080fd5b600083013567ffffffffffffffff8111156111b957600080fd5b6111c585828601611064565b925050602083013567ffffffffffffffff8111156111e257600080fd5b6111ee85828601611064565b9150509250929050565b6000611204838361129f565b905092915050565b61121581611936565b82525050565b60006112268261187f565b61123081856118a2565b9350836020820285016112428561185a565b8060005b8581101561127e578484038952815161125f85826111f8565b945061126a83611895565b925060208a01995050600181019050611246565b50829750879550505050505092915050565b61129981611948565b82525050565b60006112aa8261188a565b6112b481856118b3565b93506112c481856020860161198d565b6112cd81611ac8565b840191505092915050565b60006112e38261188a565b6112ed81856118c4565b93506112fd81856020860161198d565b61130681611ac8565b840191505092915050565b600061131c8261188a565b61132681856118d5565b935061133681856020860161198d565b80840191505092915050565b6000815461134f816119c0565b61135981866118c4565b945060018216600081146113745760018114611386576113b9565b60ff19831686526020860193506113b9565b61138f8561186a565b60005b838110156113b157815481890152600182019150602081019050611392565b808801955050505b50505092915050565b60006113cf601c836118c4565b91507f566f7465206f7074696f6e206973206e6f7420617661696c61626c65000000006000830152602082019050919050565b600061140f6020836118c4565b91507f526567697374726174696f6e2066656520697320302e303030312065746865726000830152602082019050919050565b600061144f602a836118c4565b91507f596f7520617265206e6f7420617574686f72697a656420746f2074616b65207460008301527f68697320616374696f6e000000000000000000000000000000000000000000006020830152604082019050919050565b60006114b5601e836118c4565b91507f596f7520766f746520686173206265656e206361737420616c726561647900006000830152602082019050919050565b60006114f56021836118c4565b91507f50726f706f73616c206e6f7420617661696c61626c6520666f7220766f74696e60008301527f67000000000000000000000000000000000000000000000000000000000000006020830152604082019050919050565b61155781611974565b82525050565b60006115698284611311565b915081905092915050565b6000608082019050611589600083018761120c565b6115966020830186611290565b6115a3604083018561154e565b6115b0606083018461154e565b95945050505050565b60006020820190506115ce6000830184611290565b92915050565b600060808201905081810360008301526115ee81876112d8565b905081810360208301526116028186611342565b90508181036040830152611616818561121b565b9050611625606083018461154e565b95945050505050565b60006020820190508181036000830152611647816113c2565b9050919050565b6000602082019050818103600083015261166781611402565b9050919050565b6000602082019050818103600083015261168781611442565b9050919050565b600060208201905081810360008301526116a7816114a8565b9050919050565b600060208201905081810360008301526116c7816114e8565b9050919050565b60006020820190506116e3600083018461154e565b92915050565b60006040820190506116fe600083018561154e565b61170b6020830184611290565b9392505050565b6000606082019050611727600083018661154e565b818103602083015261173981856112d8565b9050818103604083015261174d81846112d8565b9050949350505050565b600060c08201905061176c600083018961154e565b611779602083018861154e565b818103604083015261178b8187611342565b9050818103606083015261179f8186611342565b905081810360808301526117b381856112d8565b90506117c260a083018461154e565b979650505050505050565b6000604051905081810181811067ffffffffffffffff821117156117f4576117f3611a99565b5b8060405250919050565b600067ffffffffffffffff82111561181957611818611a99565b5b602082029050602081019050919050565b600067ffffffffffffffff82111561184557611844611a99565b5b601f19601f8301169050602081019050919050565b6000819050602082019050919050565b60008190508160005260206000209050919050565b600081519050919050565b600081519050919050565b6000602082019050919050565b600082825260208201905092915050565b600082825260208201905092915050565b600082825260208201905092915050565b600081905092915050565b60006118eb82611974565b91506118f683611974565b9250827fffffffffffffffffffffffffffffffffffffffffffffffffffffffffffffffff0382111561192b5761192a611a3b565b5b828201905092915050565b600061194182611954565b9050919050565b60008115159050919050565b600073ffffffffffffffffffffffffffffffffffffffff82169050919050565b6000819050919050565b82818337600083830152505050565b60005b838110156119ab578082015181840152602081019050611990565b838111156119ba576000848401525b50505050565b600060028204905060018216806119d857607f821691505b602082108114156119ec576119eb611a6a565b5b50919050565b60006119fd82611974565b91507fffffffffffffffffffffffffffffffffffffffffffffffffffffffffffffffff821415611a3057611a2f611a3b565b5b600182019050919050565b7f4e487b7100000000000000000000000000000000000000000000000000000000600052601160045260246000fd5b7f4e487b7100000000000000000000000000000000000000000000000000000000600052602260045260246000fd5b7f4e487b7100000000000000000000000000000000000000000000000000000000600052604160045260246000fd5b6000601f19601f8301169050919050565b611ae281611936565b8114611aed57600080fd5b50565b611af981611974565b8114611b0457600080fd5b5056fea264697066735822122093870ea5c84864434f97e53d15d78c1dcb7bf23f5603f16112f505c957eb015664736f6c63430008000033",
  "linkReferences": {},
  "deployedLinkReferences": {}
}